{
  "_format": "hh-sol-artifact-1",
  "contractName": "ECMcoinVesting",
  "sourceName": "contracts/Vestings.sol",
  "abi": [
    {
      "inputs": [
        {
          "internalType": "address",
          "name": "token_",
          "type": "address"
        }
      ],
      "stateMutability": "nonpayable",
      "type": "constructor"
    },
    {
      "inputs": [],
      "name": "AmountMustBePositive",
      "type": "error"
    },
    {
      "inputs": [],
      "name": "DurationMustBeGreaterThanCliff",
      "type": "error"
    },
    {
      "inputs": [],
      "name": "DurationMustBePositive",
      "type": "error"
    },
    {
      "inputs": [],
      "name": "InsufficientReleasable",
      "type": "error"
    },
    {
      "inputs": [],
      "name": "InsufficientTokens",
      "type": "error"
    },
    {
      "inputs": [],
      "name": "NotBeneficiaryOrOwner",
      "type": "error"
    },
    {
      "inputs": [],
      "name": "NotEnoughWithdrawableFunds",
      "type": "error"
    },
    {
      "inputs": [],
      "name": "NotRevocable",
      "type": "error"
    },
    {
      "inputs": [
        {
          "internalType": "address",
          "name": "owner",
          "type": "address"
        }
      ],
      "name": "OwnableInvalidOwner",
      "type": "error"
    },
    {
      "inputs": [
        {
          "internalType": "address",
          "name": "account",
          "type": "address"
        }
      ],
      "name": "OwnableUnauthorizedAccount",
      "type": "error"
    },
    {
      "inputs": [],
      "name": "ReentrancyGuardReentrantCall",
      "type": "error"
    },
    {
      "inputs": [
        {
          "internalType": "address",
          "name": "token",
          "type": "address"
        }
      ],
      "name": "SafeERC20FailedOperation",
      "type": "error"
    },
    {
      "inputs": [],
      "name": "ScheduleNotFound",
      "type": "error"
    },
    {
      "inputs": [],
      "name": "ScheduleRevoked",
      "type": "error"
    },
    {
      "inputs": [],
      "name": "ZeroAddressBeneficiary",
      "type": "error"
    },
    {
      "anonymous": false,
      "inputs": [
        {
          "indexed": true,
          "internalType": "address",
          "name": "previousOwner",
          "type": "address"
        },
        {
          "indexed": true,
          "internalType": "address",
          "name": "newOwner",
          "type": "address"
        }
      ],
      "name": "OwnershipTransferred",
      "type": "event"
    },
    {
      "anonymous": false,
      "inputs": [
        {
          "indexed": true,
          "internalType": "bytes32",
          "name": "vestingScheduleId",
          "type": "bytes32"
        },
        {
          "indexed": true,
          "internalType": "address",
          "name": "beneficiary",
          "type": "address"
        },
        {
          "indexed": false,
          "internalType": "uint256",
          "name": "amount",
          "type": "uint256"
        }
      ],
      "name": "TokensReleased",
      "type": "event"
    },
    {
      "anonymous": false,
      "inputs": [
        {
          "indexed": true,
          "internalType": "bytes32",
          "name": "vestingScheduleId",
          "type": "bytes32"
        },
        {
          "indexed": true,
          "internalType": "address",
          "name": "beneficiary",
          "type": "address"
        },
        {
          "indexed": false,
          "internalType": "uint256",
          "name": "start",
          "type": "uint256"
        },
        {
          "indexed": false,
          "internalType": "uint256",
          "name": "cliff",
          "type": "uint256"
        },
        {
          "indexed": false,
          "internalType": "uint256",
          "name": "duration",
          "type": "uint256"
        },
        {
          "indexed": false,
          "internalType": "bool",
          "name": "revocable",
          "type": "bool"
        },
        {
          "indexed": false,
          "internalType": "uint256",
          "name": "amount",
          "type": "uint256"
        }
      ],
      "name": "VestingScheduleCreated",
      "type": "event"
    },
    {
      "anonymous": false,
      "inputs": [
        {
          "indexed": true,
          "internalType": "bytes32",
          "name": "vestingScheduleId",
          "type": "bytes32"
        }
      ],
      "name": "VestingScheduleRevoked",
      "type": "event"
    },
    {
      "anonymous": false,
      "inputs": [
        {
          "indexed": true,
          "internalType": "address",
          "name": "to",
          "type": "address"
        },
        {
          "indexed": false,
          "internalType": "uint256",
          "name": "amount",
          "type": "uint256"
        }
      ],
      "name": "Withdraw",
      "type": "event"
    },
    {
      "stateMutability": "payable",
      "type": "fallback"
    },
    {
      "inputs": [],
      "name": "USER_VESTING_CLIFF",
      "outputs": [
        {
          "internalType": "uint256",
          "name": "",
          "type": "uint256"
        }
      ],
      "stateMutability": "view",
      "type": "function"
    },
    {
      "inputs": [],
      "name": "USER_VESTING_DURATION",
      "outputs": [
        {
          "internalType": "uint256",
          "name": "",
          "type": "uint256"
        }
      ],
      "stateMutability": "view",
      "type": "function"
    },
    {
      "inputs": [],
      "name": "USER_VESTING_START_TIMESTAMP",
      "outputs": [
        {
          "internalType": "uint256",
          "name": "",
          "type": "uint256"
        }
      ],
      "stateMutability": "view",
      "type": "function"
    },
    {
      "inputs": [
        {
          "internalType": "address",
          "name": "holder",
          "type": "address"
        }
      ],
      "name": "computeNextVestingScheduleIdForHolder",
      "outputs": [
        {
          "internalType": "bytes32",
          "name": "",
          "type": "bytes32"
        }
      ],
      "stateMutability": "view",
      "type": "function"
    },
    {
      "inputs": [
        {
          "internalType": "bytes32",
          "name": "vestingScheduleId",
          "type": "bytes32"
        }
      ],
      "name": "computeReleasableAmount",
      "outputs": [
        {
          "internalType": "uint256",
          "name": "",
          "type": "uint256"
        }
      ],
      "stateMutability": "view",
      "type": "function"
    },
    {
      "inputs": [
        {
          "internalType": "address",
          "name": "holder",
          "type": "address"
        },
        {
          "internalType": "uint256",
          "name": "index",
          "type": "uint256"
        }
      ],
      "name": "computeVestingScheduleIdForAddressAndIndex",
      "outputs": [
        {
          "internalType": "bytes32",
          "name": "",
          "type": "bytes32"
        }
      ],
      "stateMutability": "pure",
      "type": "function"
    },
    {
      "inputs": [
        {
          "internalType": "address",
          "name": "holder",
          "type": "address"
        }
      ],
      "name": "getLastVestingScheduleForHolder",
      "outputs": [
        {
          "components": [
            {
              "internalType": "address",
              "name": "beneficiary",
              "type": "address"
            },
            {
              "internalType": "uint256",
              "name": "cliff",
              "type": "uint256"
            },
            {
              "internalType": "uint256",
              "name": "start",
              "type": "uint256"
            },
            {
              "internalType": "uint256",
              "name": "duration",
              "type": "uint256"
            },
            {
              "internalType": "bool",
              "name": "revocable",
              "type": "bool"
            },
            {
              "internalType": "uint256",
              "name": "amountTotal",
              "type": "uint256"
            },
            {
              "internalType": "uint256",
              "name": "released",
              "type": "uint256"
            },
            {
              "internalType": "bool",
              "name": "revoked",
              "type": "bool"
            }
          ],
          "internalType": "struct ECMcoinVesting.VestingSchedule",
          "name": "",
          "type": "tuple"
        }
      ],
      "stateMutability": "view",
      "type": "function"
    },
    {
      "inputs": [],
      "name": "getToken",
      "outputs": [
        {
          "internalType": "address",
          "name": "",
          "type": "address"
        }
      ],
      "stateMutability": "view",
      "type": "function"
    },
    {
      "inputs": [
        {
          "internalType": "uint256",
          "name": "index",
          "type": "uint256"
        }
      ],
      "name": "getVestingIdAtIndex",
      "outputs": [
        {
          "internalType": "bytes32",
          "name": "",
          "type": "bytes32"
        }
      ],
      "stateMutability": "view",
      "type": "function"
    },
    {
      "inputs": [
        {
          "internalType": "bytes32",
          "name": "vestingScheduleId",
          "type": "bytes32"
        }
      ],
      "name": "getVestingSchedule",
      "outputs": [
        {
          "components": [
            {
              "internalType": "address",
              "name": "beneficiary",
              "type": "address"
            },
            {
              "internalType": "uint256",
              "name": "cliff",
              "type": "uint256"
            },
            {
              "internalType": "uint256",
              "name": "start",
              "type": "uint256"
            },
            {
              "internalType": "uint256",
              "name": "duration",
              "type": "uint256"
            },
            {
              "internalType": "bool",
              "name": "revocable",
              "type": "bool"
            },
            {
              "internalType": "uint256",
              "name": "amountTotal",
              "type": "uint256"
            },
            {
              "internalType": "uint256",
              "name": "released",
              "type": "uint256"
            },
            {
              "internalType": "bool",
              "name": "revoked",
              "type": "bool"
            }
          ],
          "internalType": "struct ECMcoinVesting.VestingSchedule",
          "name": "",
          "type": "tuple"
        }
      ],
      "stateMutability": "view",
      "type": "function"
    },
    {
      "inputs": [
        {
          "internalType": "address",
          "name": "holder",
          "type": "address"
        },
        {
          "internalType": "uint256",
          "name": "index",
          "type": "uint256"
        }
      ],
      "name": "getVestingScheduleByAddressAndIndex",
      "outputs": [
        {
          "components": [
            {
              "internalType": "address",
              "name": "beneficiary",
              "type": "address"
            },
            {
              "internalType": "uint256",
              "name": "cliff",
              "type": "uint256"
            },
            {
              "internalType": "uint256",
              "name": "start",
              "type": "uint256"
            },
            {
              "internalType": "uint256",
              "name": "duration",
              "type": "uint256"
            },
            {
              "internalType": "bool",
              "name": "revocable",
              "type": "bool"
            },
            {
              "internalType": "uint256",
              "name": "amountTotal",
              "type": "uint256"
            },
            {
              "internalType": "uint256",
              "name": "released",
              "type": "uint256"
            },
            {
              "internalType": "bool",
              "name": "revoked",
              "type": "bool"
            }
          ],
          "internalType": "struct ECMcoinVesting.VestingSchedule",
          "name": "",
          "type": "tuple"
        }
      ],
      "stateMutability": "view",
      "type": "function"
    },
    {
      "inputs": [],
      "name": "getVestingSchedulesCount",
      "outputs": [
        {
          "internalType": "uint256",
          "name": "",
          "type": "uint256"
        }
      ],
      "stateMutability": "view",
      "type": "function"
    },
    {
      "inputs": [
        {
          "internalType": "address",
          "name": "_beneficiary",
          "type": "address"
        }
      ],
      "name": "getVestingSchedulesCountByBeneficiary",
      "outputs": [
        {
          "internalType": "uint256",
          "name": "",
          "type": "uint256"
        }
      ],
      "stateMutability": "view",
      "type": "function"
    },
    {
      "inputs": [],
      "name": "getVestingSchedulesTotalAmount",
      "outputs": [
        {
          "internalType": "uint256",
          "name": "",
          "type": "uint256"
        }
      ],
      "stateMutability": "view",
      "type": "function"
    },
    {
      "inputs": [],
      "name": "getWithdrawableAmount",
      "outputs": [
        {
          "internalType": "uint256",
          "name": "",
          "type": "uint256"
        }
      ],
      "stateMutability": "view",
      "type": "function"
    },
    {
      "inputs": [],
      "name": "owner",
      "outputs": [
        {
          "internalType": "address",
          "name": "",
          "type": "address"
        }
      ],
      "stateMutability": "view",
      "type": "function"
    },
    {
      "inputs": [
        {
          "internalType": "bytes32",
          "name": "vestingScheduleId",
          "type": "bytes32"
        },
        {
          "internalType": "uint256",
          "name": "amount",
          "type": "uint256"
        }
      ],
      "name": "release",
      "outputs": [],
      "stateMutability": "nonpayable",
      "type": "function"
    },
    {
      "inputs": [],
      "name": "renounceOwnership",
      "outputs": [],
      "stateMutability": "nonpayable",
      "type": "function"
    },
    {
      "inputs": [
        {
          "internalType": "bytes32",
          "name": "vestingScheduleId",
          "type": "bytes32"
        }
      ],
      "name": "revoke",
      "outputs": [],
      "stateMutability": "nonpayable",
      "type": "function"
    },
    {
      "inputs": [
        {
          "internalType": "address",
          "name": "newOwner",
          "type": "address"
        }
      ],
      "name": "transferOwnership",
      "outputs": [],
      "stateMutability": "nonpayable",
      "type": "function"
    },
    {
      "inputs": [
        {
          "internalType": "uint256",
          "name": "amount",
          "type": "uint256"
        }
      ],
      "name": "vestTokens",
      "outputs": [],
      "stateMutability": "nonpayable",
      "type": "function"
    },
    {
      "inputs": [
        {
          "internalType": "uint256",
          "name": "amount",
          "type": "uint256"
        }
      ],
      "name": "withdraw",
      "outputs": [],
      "stateMutability": "nonpayable",
      "type": "function"
    },
    {
      "stateMutability": "payable",
      "type": "receive"
    }
  ],
  "bytecode": "0x60a060405234801561001057600080fd5b5060405161280f38038061280f83398181016040528101906100329190610256565b33600073ffffffffffffffffffffffffffffffffffffffff168173ffffffffffffffffffffffffffffffffffffffff16036100a55760006040517f1e4fbdf700000000000000000000000000000000000000000000000000000000815260040161009c9190610292565b60405180910390fd5b6100b48161012f60201b60201c565b5060018081905550600073ffffffffffffffffffffffffffffffffffffffff168173ffffffffffffffffffffffffffffffffffffffff16036100f557600080fd5b8073ffffffffffffffffffffffffffffffffffffffff1660808173ffffffffffffffffffffffffffffffffffffffff1681525050506102ad565b60008060009054906101000a900473ffffffffffffffffffffffffffffffffffffffff169050816000806101000a81548173ffffffffffffffffffffffffffffffffffffffff021916908373ffffffffffffffffffffffffffffffffffffffff1602179055508173ffffffffffffffffffffffffffffffffffffffff168173ffffffffffffffffffffffffffffffffffffffff167f8be0079c531659141344cd1fd0a4f28419497f9722a3daafe3b4186f6b6457e060405160405180910390a35050565b600080fd5b600073ffffffffffffffffffffffffffffffffffffffff82169050919050565b6000610223826101f8565b9050919050565b61023381610218565b811461023e57600080fd5b50565b6000815190506102508161022a565b92915050565b60006020828403121561026c5761026b6101f3565b5b600061027a84828501610241565b91505092915050565b61028c81610218565b82525050565b60006020820190506102a76000830184610283565b92915050565b60805161252b6102e4600039600081816105af015281816108850152818161090901528181610da0015261101e015261252b6000f3fe6080604052600436106101395760003560e01c80637e913dc6116100ab578063b75c7dc61161006f578063b75c7dc61461041a578063ea1bb3d514610443578063f2fde38b14610480578063f51321d7146104a9578063f7c469f0146104e6578063f9079b37146105235761013a565b80637e913dc61461030d5780638af104da1461034a5780638da5cb5b1461038757806390be10cc146103b25780639ef346b4146103dd5761013a565b8063463c0ad7116100fd578063463c0ad71461020f57806348deb4711461023a57806355db189b146102655780635a7bb69a1461029057806366afd8ef146102cd578063715018a6146102f65761013a565b806302130f631461013c578063130836171461016557806321df0da71461019057806327ac603d146101bb5780632e1a7d4d146101e65761013a565b5b005b34801561014857600080fd5b50610163600480360381019061015e9190611d63565b610560565b005b34801561017157600080fd5b5061017a610874565b6040516101879190611d9f565b60405180910390f35b34801561019c57600080fd5b506101a5610881565b6040516101b29190611dfb565b60405180910390f35b3480156101c757600080fd5b506101d06108a9565b6040516101dd9190611d9f565b60405180910390f35b3480156101f257600080fd5b5061020d60048036038101906102089190611d63565b6108b1565b005b34801561021b57600080fd5b506102246109a6565b6040516102319190611d9f565b60405180910390f35b34801561024657600080fd5b5061024f6109ad565b60405161025c9190611d9f565b60405180910390f35b34801561027157600080fd5b5061027a6109b7565b6040516102879190611d9f565b60405180910390f35b34801561029c57600080fd5b506102b760048036038101906102b29190611e42565b6109be565b6040516102c49190611d9f565b60405180910390f35b3480156102d957600080fd5b506102f460048036038101906102ef9190611ea5565b610a07565b005b34801561030257600080fd5b5061030b610e67565b005b34801561031957600080fd5b50610334600480360381019061032f9190611e42565b610e7b565b6040516103419190611fc0565b60405180910390f35b34801561035657600080fd5b50610371600480360381019061036c9190611fdc565b610fbb565b60405161037e919061202b565b60405180910390f35b34801561039357600080fd5b5061039c610fee565b6040516103a99190611dfb565b60405180910390f35b3480156103be57600080fd5b506103c7611017565b6040516103d49190611d9f565b60405180910390f35b3480156103e957600080fd5b5061040460048036038101906103ff9190612046565b6110c5565b6040516104119190611fc0565b60405180910390f35b34801561042657600080fd5b50610441600480360381019061043c9190612046565b6111b1565b005b34801561044f57600080fd5b5061046a60048036038101906104659190612046565b61147f565b6040516104779190611d9f565b60405180910390f35b34801561048c57600080fd5b506104a760048036038101906104a29190611e42565b61166e565b005b3480156104b557600080fd5b506104d060048036038101906104cb9190611fdc565b6116f4565b6040516104dd9190611fc0565b60405180910390f35b3480156104f257600080fd5b5061050d60048036038101906105089190611e42565b611716565b60405161051a919061202b565b60405180910390f35b34801561052f57600080fd5b5061054a60048036038101906105459190611d63565b611768565b604051610557919061202b565b60405180910390f35b6105686117d9565b600081036105a2576040517f5c2262de00000000000000000000000000000000000000000000000000000000815260040160405180910390fd5b60003390506105f48130847f000000000000000000000000000000000000000000000000000000000000000073ffffffffffffffffffffffffffffffffffffffff1661181f909392919063ffffffff16565b60006105fe6118a1565b9050600063696ec58082101561061a5763696ec580905061061e565b8190505b60006276a7009050600062ed4e009050600061063986611716565b90506000838561064991906120a2565b90506040518061010001604052808873ffffffffffffffffffffffffffffffffffffffff16815260200182815260200186815260200184815260200160001515815260200189815260200160008152602001600015158152506003600084815260200190815260200160002060008201518160000160006101000a81548173ffffffffffffffffffffffffffffffffffffffff021916908373ffffffffffffffffffffffffffffffffffffffff16021790555060208201518160010155604082015181600201556060820151816003015560808201518160040160006101000a81548160ff02191690831515021790555060a0820151816005015560c0820151816006015560e08201518160070160006101000a81548160ff021916908315150217905550905050876004600082825461078391906120a2565b9250508190555060028290806001815401808255809150506001900390600052602060002001600090919091909150556001600560008973ffffffffffffffffffffffffffffffffffffffff1673ffffffffffffffffffffffffffffffffffffffff168152602001908152602001600020600082825461080391906120a2565b925050819055508673ffffffffffffffffffffffffffffffffffffffff16827faa27ab28bdcfcb94adec61b3426b1c96beb6c5f0b8e07e995fc8a6ca9e08685987848760008e60405161085a9594939291906120e5565b60405180910390a3505050505050506108716118a9565b50565b6000600280549050905090565b60007f0000000000000000000000000000000000000000000000000000000000000000905090565b63696ec58081565b6108b96117d9565b6108c16118b2565b806108ca611017565b1015610902576040517f56d23e3a00000000000000000000000000000000000000000000000000000000815260040160405180910390fd5b61094d33827f000000000000000000000000000000000000000000000000000000000000000073ffffffffffffffffffffffffffffffffffffffff166119399092919063ffffffff16565b3373ffffffffffffffffffffffffffffffffffffffff167f884edad9ce6fa2440d8a54cc123490eb96d2768479d49ff9c7366125a9424364826040516109939190611d9f565b60405180910390a26109a36118a9565b50565b6276a70081565b6000600454905090565b62ed4e0081565b6000600560008373ffffffffffffffffffffffffffffffffffffffff1673ffffffffffffffffffffffffffffffffffffffff168152602001908152602001600020549050919050565b610a0f6117d9565b81600073ffffffffffffffffffffffffffffffffffffffff166003600083815260200190815260200160002060000160009054906101000a900473ffffffffffffffffffffffffffffffffffffffff1673ffffffffffffffffffffffffffffffffffffffff1603610aac576040517fd858766900000000000000000000000000000000000000000000000000000000815260040160405180910390fd5b826003600082815260200190815260200160002060070160009054906101000a900460ff1615610b08576040517fc5551c3800000000000000000000000000000000000000000000000000000000815260040160405180910390fd5b60006003600086815260200190815260200160002090508060000160009054906101000a900473ffffffffffffffffffffffffffffffffffffffff1673ffffffffffffffffffffffffffffffffffffffff163373ffffffffffffffffffffffffffffffffffffffff161480610baf5750610b80610fee565b73ffffffffffffffffffffffffffffffffffffffff163373ffffffffffffffffffffffffffffffffffffffff16145b610be5576040517f4215153b00000000000000000000000000000000000000000000000000000000815260040160405180910390fd5b6000610cba82604051806101000160405290816000820160009054906101000a900473ffffffffffffffffffffffffffffffffffffffff1673ffffffffffffffffffffffffffffffffffffffff1673ffffffffffffffffffffffffffffffffffffffff1681526020016001820154815260200160028201548152602001600382015481526020016004820160009054906101000a900460ff1615151515815260200160058201548152602001600682015481526020016007820160009054906101000a900460ff1615151515815250506119b8565b9050610cfb6040518060400160405280601281526020017f52656c65617361626c6520616d6f756e743a000000000000000000000000000081525082611a6f565b848110158015610d0b5750600085115b610d41576040517fac2361b000000000000000000000000000000000000000000000000000000000815260040160405180910390fd5b84826006016000828254610d5591906120a2565b925050819055508460046000828254610d6e9190612138565b92505081905550610de48260000160009054906101000a900473ffffffffffffffffffffffffffffffffffffffff16867f000000000000000000000000000000000000000000000000000000000000000073ffffffffffffffffffffffffffffffffffffffff166119399092919063ffffffff16565b8160000160009054906101000a900473ffffffffffffffffffffffffffffffffffffffff1673ffffffffffffffffffffffffffffffffffffffff16867f62eb4bd96d9a7a66875a9f46f9f9d8bf6cfed3fe0578671b752301427d2a4f6687604051610e4f9190611d9f565b60405180910390a350505050610e636118a9565b5050565b610e6f6118b2565b610e796000611b0b565b565b610e83611cbf565b60036000610edc846001600560008873ffffffffffffffffffffffffffffffffffffffff1673ffffffffffffffffffffffffffffffffffffffff16815260200190815260200160002054610ed79190612138565b610fbb565b8152602001908152602001600020604051806101000160405290816000820160009054906101000a900473ffffffffffffffffffffffffffffffffffffffff1673ffffffffffffffffffffffffffffffffffffffff1673ffffffffffffffffffffffffffffffffffffffff1681526020016001820154815260200160028201548152602001600382015481526020016004820160009054906101000a900460ff1615151515815260200160058201548152602001600682015481526020016007820160009054906101000a900460ff1615151515815250509050919050565b60008282604051602001610fd09291906121d5565b60405160208183030381529060405280519060200120905092915050565b60008060009054906101000a900473ffffffffffffffffffffffffffffffffffffffff16905090565b60006004547f000000000000000000000000000000000000000000000000000000000000000073ffffffffffffffffffffffffffffffffffffffff166370a08231306040518263ffffffff1660e01b81526004016110759190611dfb565b602060405180830381865afa158015611092573d6000803e3d6000fd5b505050506040513d601f19601f820116820180604052508101906110b69190612216565b6110c09190612138565b905090565b6110cd611cbf565b60036000838152602001908152602001600020604051806101000160405290816000820160009054906101000a900473ffffffffffffffffffffffffffffffffffffffff1673ffffffffffffffffffffffffffffffffffffffff1673ffffffffffffffffffffffffffffffffffffffff1681526020016001820154815260200160028201548152602001600382015481526020016004820160009054906101000a900460ff1615151515815260200160058201548152602001600682015481526020016007820160009054906101000a900460ff1615151515815250509050919050565b6111b96118b2565b80600073ffffffffffffffffffffffffffffffffffffffff166003600083815260200190815260200160002060000160009054906101000a900473ffffffffffffffffffffffffffffffffffffffff1673ffffffffffffffffffffffffffffffffffffffff1603611256576040517fd858766900000000000000000000000000000000000000000000000000000000815260040160405180910390fd5b816003600082815260200190815260200160002060070160009054906101000a900460ff16156112b2576040517fc5551c3800000000000000000000000000000000000000000000000000000000815260040160405180910390fd5b60006003600085815260200190815260200160002090508060040160009054906101000a900460ff16611311576040517f9414820d00000000000000000000000000000000000000000000000000000000815260040160405180910390fd5b60006113e682604051806101000160405290816000820160009054906101000a900473ffffffffffffffffffffffffffffffffffffffff1673ffffffffffffffffffffffffffffffffffffffff1673ffffffffffffffffffffffffffffffffffffffff1681526020016001820154815260200160028201548152602001600382015481526020016004820160009054906101000a900460ff1615151515815260200160058201548152602001600682015481526020016007820160009054906101000a900460ff1615151515815250506119b8565b905060008111156113fc576113fb8582610a07565b5b6000826006015483600501546114129190612138565b905080600460008282546114269190612138565b9250508190555060018360070160006101000a81548160ff021916908315150217905550857fb75a59dfa7ea1e71b56ada696e1588c8cb0f9daa003585e715aa96e23a8799d860405160405180910390a2505050505050565b600081600073ffffffffffffffffffffffffffffffffffffffff166003600083815260200190815260200160002060000160009054906101000a900473ffffffffffffffffffffffffffffffffffffffff1673ffffffffffffffffffffffffffffffffffffffff160361151e576040517fd858766900000000000000000000000000000000000000000000000000000000815260040160405180910390fd5b826003600082815260200190815260200160002060070160009054906101000a900460ff161561157a576040517fc5551c3800000000000000000000000000000000000000000000000000000000815260040160405180910390fd5b600060036000868152602001908152602001600020905061166481604051806101000160405290816000820160009054906101000a900473ffffffffffffffffffffffffffffffffffffffff1673ffffffffffffffffffffffffffffffffffffffff1673ffffffffffffffffffffffffffffffffffffffff1681526020016001820154815260200160028201548152602001600382015481526020016004820160009054906101000a900460ff1615151515815260200160058201548152602001600682015481526020016007820160009054906101000a900460ff1615151515815250506119b8565b9350505050919050565b6116766118b2565b600073ffffffffffffffffffffffffffffffffffffffff168173ffffffffffffffffffffffffffffffffffffffff16036116e85760006040517f1e4fbdf70000000000000000000000000000000000000000000000000000000081526004016116df9190611dfb565b60405180910390fd5b6116f181611b0b565b50565b6116fc611cbf565b61170e6117098484610fbb565b6110c5565b905092915050565b600061176182600560008573ffffffffffffffffffffffffffffffffffffffff1673ffffffffffffffffffffffffffffffffffffffff16815260200190815260200160002054610fbb565b9050919050565b6000611772610874565b82106117b3576040517f08c379a00000000000000000000000000000000000000000000000000000000081526004016117aa906122c6565b60405180910390fd5b600282815481106117c7576117c66122e6565b5b90600052602060002001549050919050565b600260015403611815576040517f3ee5aeb500000000000000000000000000000000000000000000000000000000815260040160405180910390fd5b6002600181905550565b61189b848573ffffffffffffffffffffffffffffffffffffffff166323b872dd86868660405160240161185493929190612315565b604051602081830303815290604052915060e01b6020820180517bffffffffffffffffffffffffffffffffffffffffffffffffffffffff8381831617835250505050611bcf565b50505050565b600042905090565b60018081905550565b6118ba611c71565b73ffffffffffffffffffffffffffffffffffffffff166118d8610fee565b73ffffffffffffffffffffffffffffffffffffffff1614611937576118fb611c71565b6040517f118cdaa700000000000000000000000000000000000000000000000000000000815260040161192e9190611dfb565b60405180910390fd5b565b6119b3838473ffffffffffffffffffffffffffffffffffffffff1663a9059cbb858560405160240161196c92919061234c565b604051602081830303815290604052915060e01b6020820180517bffffffffffffffffffffffffffffffffffffffffffffffffffffffff8381831617835250505050611bcf565b505050565b6000806119c36118a1565b905082602001518110806119d857508260e001515b156119e7576000915050611a6a565b826060015183604001516119fb91906120a2565b8110611a1d578260c001518360a00151611a159190612138565b915050611a6a565b6000836040015182611a2f9190612138565b905060008460600151828660a00151611a489190612375565b611a5291906123e6565b90508460c0015181611a649190612138565b93505050505b919050565b611b078282604051602401611a85929190612496565b6040516020818303038152906040527fb60e72cc000000000000000000000000000000000000000000000000000000007bffffffffffffffffffffffffffffffffffffffffffffffffffffffff19166020820180517bffffffffffffffffffffffffffffffffffffffffffffffffffffffff8381831617835250505050611c79565b5050565b60008060009054906101000a900473ffffffffffffffffffffffffffffffffffffffff169050816000806101000a81548173ffffffffffffffffffffffffffffffffffffffff021916908373ffffffffffffffffffffffffffffffffffffffff1602179055508173ffffffffffffffffffffffffffffffffffffffff168173ffffffffffffffffffffffffffffffffffffffff167f8be0079c531659141344cd1fd0a4f28419497f9722a3daafe3b4186f6b6457e060405160405180910390a35050565b600080602060008451602086016000885af180611bf2576040513d6000823e3d81fd5b3d925060005191505060008214611c0d576001811415611c29565b60008473ffffffffffffffffffffffffffffffffffffffff163b145b15611c6b57836040517f5274afe7000000000000000000000000000000000000000000000000000000008152600401611c629190611dfb565b60405180910390fd5b50505050565b600033905090565b611c9081611c88611c93611cb4565b63ffffffff16565b50565b60006a636f6e736f6c652e6c6f679050600080835160208501845afa505050565b611d1e819050919050565b604051806101000160405280600073ffffffffffffffffffffffffffffffffffffffff16815260200160008152602001600081526020016000815260200160001515815260200160008152602001600081526020016000151581525090565b611d266124c6565b565b600080fd5b6000819050919050565b611d4081611d2d565b8114611d4b57600080fd5b50565b600081359050611d5d81611d37565b92915050565b600060208284031215611d7957611d78611d28565b5b6000611d8784828501611d4e565b91505092915050565b611d9981611d2d565b82525050565b6000602082019050611db46000830184611d90565b92915050565b600073ffffffffffffffffffffffffffffffffffffffff82169050919050565b6000611de582611dba565b9050919050565b611df581611dda565b82525050565b6000602082019050611e106000830184611dec565b92915050565b611e1f81611dda565b8114611e2a57600080fd5b50565b600081359050611e3c81611e16565b92915050565b600060208284031215611e5857611e57611d28565b5b6000611e6684828501611e2d565b91505092915050565b6000819050919050565b611e8281611e6f565b8114611e8d57600080fd5b50565b600081359050611e9f81611e79565b92915050565b60008060408385031215611ebc57611ebb611d28565b5b6000611eca85828601611e90565b9250506020611edb85828601611d4e565b9150509250929050565b611eee81611dda565b82525050565b611efd81611d2d565b82525050565b60008115159050919050565b611f1881611f03565b82525050565b61010082016000820151611f356000850182611ee5565b506020820151611f486020850182611ef4565b506040820151611f5b6040850182611ef4565b506060820151611f6e6060850182611ef4565b506080820151611f816080850182611f0f565b5060a0820151611f9460a0850182611ef4565b5060c0820151611fa760c0850182611ef4565b5060e0820151611fba60e0850182611f0f565b50505050565b600061010082019050611fd66000830184611f1e565b92915050565b60008060408385031215611ff357611ff2611d28565b5b600061200185828601611e2d565b925050602061201285828601611d4e565b9150509250929050565b61202581611e6f565b82525050565b6000602082019050612040600083018461201c565b92915050565b60006020828403121561205c5761205b611d28565b5b600061206a84828501611e90565b91505092915050565b7f4e487b7100000000000000000000000000000000000000000000000000000000600052601160045260246000fd5b60006120ad82611d2d565b91506120b883611d2d565b92508282019050808211156120d0576120cf612073565b5b92915050565b6120df81611f03565b82525050565b600060a0820190506120fa6000830188611d90565b6121076020830187611d90565b6121146040830186611d90565b61212160608301856120d6565b61212e6080830184611d90565b9695505050505050565b600061214382611d2d565b915061214e83611d2d565b925082820390508181111561216657612165612073565b5b92915050565b60008160601b9050919050565b60006121848261216c565b9050919050565b600061219682612179565b9050919050565b6121ae6121a982611dda565b61218b565b82525050565b6000819050919050565b6121cf6121ca82611d2d565b6121b4565b82525050565b60006121e1828561219d565b6014820191506121f182846121be565b6020820191508190509392505050565b60008151905061221081611d37565b92915050565b60006020828403121561222c5761222b611d28565b5b600061223a84828501612201565b91505092915050565b600082825260208201905092915050565b7f546f6b656e56657374696e673a20696e646578206f7574206f6620626f756e6460008201527f7300000000000000000000000000000000000000000000000000000000000000602082015250565b60006122b0602183612243565b91506122bb82612254565b604082019050919050565b600060208201905081810360008301526122df816122a3565b9050919050565b7f4e487b7100000000000000000000000000000000000000000000000000000000600052603260045260246000fd5b600060608201905061232a6000830186611dec565b6123376020830185611dec565b6123446040830184611d90565b949350505050565b60006040820190506123616000830185611dec565b61236e6020830184611d90565b9392505050565b600061238082611d2d565b915061238b83611d2d565b925082820261239981611d2d565b915082820484148315176123b0576123af612073565b5b5092915050565b7f4e487b7100000000000000000000000000000000000000000000000000000000600052601260045260246000fd5b60006123f182611d2d565b91506123fc83611d2d565b92508261240c5761240b6123b7565b5b828204905092915050565b600081519050919050565b60005b83811015612440578082015181840152602081019050612425565b60008484015250505050565b6000601f19601f8301169050919050565b600061246882612417565b6124728185612243565b9350612482818560208601612422565b61248b8161244c565b840191505092915050565b600060408201905081810360008301526124b0818561245d565b90506124bf6020830184611d90565b9392505050565b7f4e487b7100000000000000000000000000000000000000000000000000000000600052605160045260246000fdfea2646970667358221220398136507e3266d0f12771615e985b536c6daeae89d7ab172d331f1f91d64d9364736f6c634300081c0033",
  "linkReferences": {},
  "deployedLinkReferences": {}
}